:100000000C942A000C9447000C9447000C94470071
:100010000C9447000C9447000C9447000C94A91CC6
:100020000C9447000C94DC1C0C9447000C94470083
:100030000C9447000C9447000C9447000C94470024
:100040000C9447000C9447000C9447000C94470014
:100050000C94470011241FBECFE5D8E0DEBFCDBF12
:1000600011E0A0E6B0E0E8E6FFE302C005900D92E3
:10007000AC33B107D9F711E0ACE3B1E001C01D9298
:10008000A334B107E1F70E9451130C94B21F0C94F2
:100090000000EF92FF920F931F937B018C0120E0F1
:1000A00030E040E05FE40E94490388238CF0C801FF
:1000B000B70120E030E040E05FE40E94C1010E940F
:1000C000A9039B01AC01205030404040504806C07D
:1000D000C801B7010E94A9039B01AC01B901CA0183
:1000E0001F910F91FF90EF900895A0E0B0E0EBE733
:1000F000F0E00C94361FDC012B01FA019C91923048
:1001000008F439C1EB018881823008F433C194309E
:1001100069F4843009F02FC111969C91119789815F
:10012000981709F428C1A7E2B1E025C1843009F489
:1001300021C18230A9F4923009F01DC19A01AD01AC
:1001400088E0EA010990AE01E90109929E0181501F
:10015000C1F7E201898111969C918923818308C1AD
:10016000923009F407C112962D903C901397EB0141
:100170008A819B811496AD90BD90CD90DC901797AD
:10018000EC80FD800E811F819101281B390BB90184
:1001900037FF04C066277727621B730B6032710537
:1001A0000CF061C0121613066CF537014801062EDB
:1001B00004C096948794779467940A94D2F721E0C8
:1001C00030E040E050E004C0220F331F441F551FB1
:1001D0006A95D2F721503040404050402E213F21B7
:1001E00040235123211531054105510521F021E01E
:1001F00030E040E050E079018A01E628F72808293C
:1002000019293CC0232BD1F1260E371E350146019A
:10021000062E04C096948794779467940A94D2F734
:1002200021E030E040E050E004C0220F331F441FC3
:10023000551F6A95D2F721503040404050402A2146
:100240003B214C215D21211531054105510521F04E
:1002500021E030E040E050E059016A01A628B728CB
:10026000C828D9280BC0821593052CF01C01AA249C
:10027000BB24650103C0EE24FF24870111969C91E5
:10028000D20111968C91981709F445C0992339F041
:10029000A80197012A193B094C095D0906C0A6016E
:1002A00095012E193F09400B510B57FD08C01182D3
:1002B0003382228224833583468357831DC081E0A5
:1002C00081833382228288279927DC01821B930B4A
:1002D000A40BB50B84839583A683B7830DC0220F2F
:1002E000331F441F551F24833583468357838281E0
:1002F000938101979383828324813581468157813D
:10030000DA01C9010197A109B1098F5F9F4FAF4F72
:10031000BF4328F30BC0918333822282EA0CFB1C7B
:100320000C1D1D1DE482F5820683178383E0808304
:10033000248135814681578157FF1AC0C901AA27F8
:1003400097FDA095BA2F81709070A070B0705695EF
:10035000479537952795822B932BA42BB52B848318
:100360009583A683B7838281938101969383828349
:10037000DF0101C0D201CD01CDB7DEB7E2E10C94BF
:10038000521FA0E2B0E0E7ECF1E00C94421F698359
:100390007A838B839C832D833E834F835887E9E048
:1003A000EE2EF12CEC0EFD1ECE010196B7010E943F
:1003B000D2048E010F5E1F4FCE010596B8010E9438
:1003C000D2048A8991E089278A8BC701B801AE01DE
:1003D000475E5F4F0E9475000E94FD03A096E6E015
:1003E0000C945E1FA0E2B0E0E8EFF1E00C94421F35
:1003F00069837A838B839C832D833E834F835887C5
:10040000F9E0EF2EF12CEC0EFD1ECE010196B701A6
:100410000E94D2048E010F5E1F4FCE010596B801D7
:100420000E94D204C701B801AE01475E5F4F0E942F
:1004300075000E94FD03A096E6E00C945E1FA0E20A
:10044000B0E0E5E2F2E00C94361F69837A838B8397
:100450009C832D833E834F835887CE010196BE0136
:10046000675F7F4F0E94D204CE010596BE016F5E8A
:100470007F4F0E94D2049985923088F0898982301A
:10048000C8F0943019F4823051F404C0843029F457
:10049000923081F487E291E0C6C0923049F420E0C6
:1004A0009A858A89981321E02A87CE010996BBC0D4
:1004B000823049F420E09A858A89981321E02A8BBA
:1004C000CE014196B0C02D843E844F8458886D88FB
:1004D0007E888F88988CEE24FF248701AA24BB2471
:1004E000650140E050E060E070E0E0E0F0E0C10174
:1004F00081709070892BE9F0E60CF71C081D191D1E
:100500009A01AB012A0D3B1D4C1D5D1D80E090E062
:10051000A0E0B0E0E614F7040805190520F481E036
:1005200090E0A0E0B0E0BA01A901480F591F6A1F8E
:100530007B1FAA0CBB1CCC1CDD1C97FE08C081E0F5
:1005400090E0A0E0B0E0A82AB92ACA2ADB2A3196B6
:10055000E032F10549F0660C771C881C991C569412
:10056000479437942794C3CFFA85EA892B893C892D
:100570008B859C85280F391F2E5F3F4F17C0CA01FE
:1005800081709070892B61F016950795F794E79428
:1005900080E090E0A0E0B0E8E82AF92A0A2B1B2BC3
:1005A00076956795579547952F5F3F4F77FDE7CF36
:1005B0000CC0440F551F661F771F17FD4160EE0CDE
:1005C000FF1C001F111F21503040403090E05907A0
:1005D00090E0690790E4790760F32B8F3C8FDB0193
:1005E000CA018F779070A070B07080349105A1051A
:1005F000B10561F447FD0AC0E114F10401051105DC
:1006000029F0405C5F4F6F4F7F4F40781A8EFE1786
:1006100011F081E08A8F4D8F5E8F6F8F78A383E01A
:10062000898FCE0149960E94FD03A096E2E10C94C9
:10063000521FA8E1B0E0EFE1F3E00C94421F6983A0
:100640007A838B839C832D833E834F83588789E0F5
:10065000E82EF12CEC0EFD1ECE010196B7010E9492
:10066000D2048E010F5E1F4FCE010596B8010E9485
:10067000D2048985823040F08989823028F0C70110
:10068000B8010E944A0501C08FEF6896E6E00C941D
:100690005E1FA8E1B0E0EFE4F3E00C94421F698331
:1006A0007A838B839C832D833E834F83588789E095
:1006B000E82EF12CEC0EFD1ECE010196B7010E9432
:1006C000D2048E010F5E1F4FCE010596B8010E9425
:1006D000D2048985823040F08989823028F0C701B0
:1006E000B8010E944A0501C08FEF6896E6E00C94BD
:1006F0005E1FA8E1B0E0EFE7F3E00C94421F6983CE
:100700007A838B839C832D833E834F83588789E034
:10071000E82EF12CEC0EFD1ECE010196B7010E94D1
:10072000D2048E010F5E1F4FCE010596B8010E94C4
:10073000D2048985823040F08989823028F0C7014F
:10074000B8010E944A0501C081E06896E6E00C9479
:100750005E1FACE0B0E0EFEAF3E00C94461F698363
:100760007A838B839C83CE010196BE016B5F7F4FA2
:100770000E94D2048D81823061F1823050F1843048
:1007800021F48E81882351F12EC02F81388537FDC9
:1007900020C06E812F3131051CF06623F9F023C093
:1007A0008EE190E0821B930B29853A854B855C8511
:1007B00004C056954795379527958A95D2F76623B5
:1007C000B1F050954095309521953F4F4F4F5F4F79
:1007D0000EC020E030E040E050E009C02FEF3FEFD6
:1007E0004FEF5FE704C020E030E040E050E8B9019F
:1007F000CA012C96E2E00C94621FDF92EF92FF9206
:100800000F931F93FC01E480F58006811781D1804E
:100810008081823048F480E090E0A0E1B0E0E82AF6
:10082000F92A0A2B1B2BA5C0843009F49FC0823003
:1008300021F4EE24FF24870105C0E114F104010531
:10084000110519F4E0E0F0E096C0628173819FEF3A
:10085000623879070CF05BC022E83FEF261B370BAC
:100860002A3131052CF020E030E040E050E02AC091
:10087000B801A701022E04C0769567955795479554
:100880000A94D2F781E090E0A0E0B0E004C0880FC5
:10089000991FAA1FBB1F2A95D2F70197A109B10979
:1008A0008E219F21A023B1230097A105B10521F03E
:1008B00081E090E0A0E0B0E09A01AB01282B392B59
:1008C0004A2B5B2BDA01C9018F779070A070B07052
:1008D00080349105A105B10539F427FF09C0205CDA
:1008E0003F4F4F4F5F4F04C0215C3F4F4F4F5F4F13
:1008F000E0E0F0E02030A0E03A07A0E04A07A0E402
:100900005A0710F0E1E0F0E079018A0127C0603871
:10091000710564F5FB01E158FF4FD801C7018F77DE
:100920009070A070B07080349105A105B10539F4C4
:10093000E7FE0DC080E490E0A0E0B0E004C08FE3EB
:1009400090E0A0E0B0E0E80EF91E0A1F1B1F17FFA1
:1009500005C016950795F794E794319687E01695AC
:100960000795F794E7948A95D1F705C0EE24FF2404
:100970008701EFEFF0E06E2F679566276795902F60
:100980009F77D794DD24D7948E2F8695492F462BB9
:10099000582F5D29B701CA011F910F91FF90EF9069
:1009A000DF900895FC01DB01408151812281622F9B
:1009B0006F7770E0221F2227221F9381892F880FD3
:1009C000822B282F30E0991F9927991F11969C930D
:1009D000119721153105A9F54115510561057105DD
:1009E00011F482E037C082E89FEF13969C938E93B8
:1009F00012979A01AB0167E0220F331F441F551F66
:100A00006A95D1F783E08C930DC0220F331F441FEA
:100A1000551F12968D919C911397019713969C9355
:100A20008E931297203080E0380780E0480780E4FA
:100A3000580758F314962D933D934D935C93179755
:100A400008952F3F310579F4411551056105710570
:100A500019F484E08C93089564FF03C081E08C93C3
:100A600012C01C9210C02F57304013963C932E9307
:100A7000129783E08C9387E0440F551F661F771F02
:100A80008A95D1F7706414964D935D936D937C9322
:100A9000179708951F93DC01FB019C91923008F495
:100AA00047C08081823008F443C0943051F41196DD
:100AB0001C91843099F58181682F70E0611B710968
:100AC0003FC0843021F0923031F48230B9F181811D
:100AD000882389F12DC011961C9111978230F1F075
:100AE00081811817D9F412962D913C911397828128
:100AF00093818217930794F028173907BCF0149656
:100B00008D919D910D90BC91A02D248135814681C0
:100B10005781281739074A075B0718F4112341F05A
:100B20000AC082179307A407B50740F4112319F0F0
:100B300061E070E005C06FEF7FEF02C060E070E041
:100B4000CB011F910895DF93CF93CDB7DEB780918E
:100B50003C0190913D01019690933D0180933C01B1
:100B6000CF91DF9108950F931F93DF93CF93CDB76C
:100B7000DEB7C55AD0400FB6F894DEBF0FBECDBF6A
:100B8000FE01EB55FF4F1082FE01EC55FF4F108226
:100B9000FE01E156FF4F1082118212821382FE0184
:100BA000E556FF4F10821182128213820E949F1C11
:100BB00020E630E080E060E0A9010E94631CFE01B5
:100BC000ED55FF4F108219C30E94F516FE01EB553B
:100BD000FF4F8083FE01E956FF4F80E090E0A8E4DC
:100BE000B2E480839183A283B3838E010D561F4F9D
:100BF000FE01E956FF4F608171818281938120E07F
:100C000030E04AEF54E40E941F02DC01CB01F801FE
:100C100080839183A283B383FE01ED56FF4F6081F1
:100C200071818281938120E030E040E85FE30E949F
:100C30007903882344F4FE01EF56FF4F81E090E0F2
:100C40009183808364C0FE01ED56FF4F6081718106
:100C50008281938120E03FEF4FE757E40E94190320
:100C600018160CF043C0FE01E956FF4F60817181F8
:100C70008281938120E030E040E251E40E941F0233
:100C8000DC01CB018E010F561F4FBC01CD010E942C
:100C90004900DC01CB01F801918380831FC0FE0174
:100CA000E157FF4F88EC90E091838083FE01E1578C
:100CB000FF4F808191810197F1F7FE01E157FF4FCE
:100CC00091838083DE01AF56BF4FFE01EF56FF4F89
:100CD00080819181019711969C938E93FE01EF562E
:100CE000FF4F808191810097D1F6E3C08E010F56AE
:100CF0001F4FFE01ED56FF4F60817181828193810C
:100D00000E944900DC01CB01F80191838083DE0160
:100D1000A357BF4FFE01EF56FF4F8081918111967F
:100D20009C938E93FE01E357FF4F80819181019741
:100D3000F1F7FE01E357FF4F91838083BAC00E9411
:100D4000F516FE01EB55FF4F8083FE01E757FF4F7D
:100D500080E090E0A8E4B2E480839183A283B3832F
:100D60008E010B571F4FFE01E757FF4F60817181C6
:100D70008281938120E030E04AEF54E40E941F0218
:100D8000DC01CB01F80180839183A283B383FE0150
:100D9000EB57FF4F608171818281938120E030E0C9
:100DA00040E85FE30E947903882344F4FE01ED5795
:100DB000FF4F81E090E09183808364C0FE01EB5798
:100DC000FF4F608171818281938120E03FEF4FE787
:100DD00057E40E94190318160CF043C0FE01E757B0
:100DE000FF4F608171818281938120E030E040E299
:100DF00051E40E941F02DC01CB018E010D571F4FF1
:100E0000BC01CD010E944900DC01CB01F8019183B6
:100E100080831FC0FE01EF57FF4F88EC90E0918365
:100E20008083FE01EF57FF4F808191810197F1F799
:100E3000FE01EF57FF4F91838083DE01AD57BF4F17
:100E4000FE01ED57FF4F80819181019711969C9390
:100E50008E93FE01ED57FF4F808191810097D1F66F
:100E600028C08E010D571F4FFE01EB57FF4F6081C9
:100E70007181828193810E944900DC01CB01F801DC
:100E800091838083DE01A158BF4FFE01ED57FF4FD4
:100E90008081918111969C938E93FE01E158FF4FC2
:100EA000808191810197F1F7FE01E158FF4F918315
:100EB0008083FE01EB55FF4F80818A3008F03FCFE1
:100EC000FE01ED55FF4F20E730E081E06081A90190
:100ED0000E94631CFE01E558FF4F80E090E0ACE803
:100EE000B2E480839183A283B3838E0109581F4F9C
:100EF000FE01E558FF4F608171818281938120E07E
:100F000030E04AEF54E40E941F02DC01CB01F801FB
:100F100080839183A283B383FE01E958FF4F6081F0
:100F200071818281938120E030E040E85FE30E949C
:100F30007903882344F4FE01EB58FF4F81E090E0F1
:100F40009183808364C0FE01E958FF4F6081718105
:100F50008281938120E03FEF4FE757E40E9419031D
:100F600018160CF043C0FE01E558FF4F60817181F7
:100F70008281938120E030E040E251E40E941F0230
:100F8000DC01CB018E010B581F4FBC01CD010E942B
:100F90004900DC01CB01F801918380831FC0FE0171
:100FA000ED58FF4F88EC90E091838083FE01ED586F
:100FB000FF4F808191810197F1F7FE01ED58FF4FBE
:100FC00091838083DE01AB58BF4FFE01EB58FF4F8A
:100FD00080819181019711969C938E93FE01EB582D
:100FE000FF4F808191810097D1F627C08E010B5869
:100FF0001F4FFE01E958FF4F60817181828193810B
:101000000E944900DC01CB01F80191838083DE015D
:10101000AF58BF4FFE01EB58FF4F808191818D93F8
:101020009C93FE01EF58FF4F808191810197F1F76A
:10103000FE01EF58FF4F91838083FE01E156FF4F81
:1010400080819181A281B3812AE030E040E050E0CC
:10105000BC01CD010E94DA1E9B01AC01FE01EB55E3
:10106000FF4F8081882F90E0A0E0B0E0FE01E156C4
:10107000FF4F820F931FA41FB51F80839183A2830C
:10108000B383FE01E359FF4F80E090E0AAE7B3E4A9
:1010900080839183A283B3838E0107591F4FFE0182
:1010A000E359FF4F608171818281938120E030E0BC
:1010B0004AEF54E40E941F02DC01CB01F801808357
:1010C0009183A283B383FE01E759FF4F6081718151
:1010D0008281938120E030E040E85FE30E94790361
:1010E000882344F4FE01E959FF4F81E090E09183A9
:1010F000808364C0FE01E759FF4F60817181828166
:10110000938120E03FEF4FE757E40E941903181640
:101110000CF043C0FE01E359FF4F60817181828171
:10112000938120E030E040E251E40E941F02DC01A4
:10113000CB018E0109591F4FBC01CD010E9449000E
:10114000DC01CB01F801918380831FC0FE01EB59C4
:10115000FF4F88EC90E091838083FE01EB59FF4FB5
:10116000808191810197F1F7FE01EB59FF4F918347
:101170008083DE01A959BF4FFE01E959FF4F8081ED
:101180009181019711969C938E93FE01E959FF4F2F
:10119000808191810097D1F627C08E0109591F4F98
:1011A000FE01E759FF4F60817181828193810E9426
:1011B0004900DC01CB01F80191838083DE01AD5948
:1011C000BF4FFE01E959FF4F808191818D939C9320
:1011D000FE01ED59FF4F808191810197F1F7FE01EA
:1011E000ED59FF4F91838083DE01AD55BF4FFE0166
:1011F000ED55FF4F80818F5F8C93FE01ED55FF4FC2
:101200008081853008F4E0CC0E949F1C22E730E00A
:1012100080E060E0A9010E94631CBAC00E94F5163C
:10122000FE01EB55FF4F8083FE01E15AFF4F80E046
:1012300090E0A8E4B2E480839183A283B3838E011B
:10124000055A1F4FFE01E15AFF4F60817181828173
:10125000938120E030E04AEF54E40E941F02DC0159
:10126000CB01F80180839183A283B383FE01E55A09
:10127000FF4F608171818281938120E030E040E8FE
:101280005FE30E947903882344F4FE01E75AFF4F8D
:1012900081E090E09183808364C0FE01E55AFF4FB6
:1012A000608171818281938120E03FEF4FE757E4B5
:1012B0000E94190318160CF043C0FE01E15AFF4FBB
:1012C000608171818281938120E030E040E251E4CD
:1012D0000E941F02DC01CB018E01075A1F4FBC0187
:1012E000CD010E944900DC01CB01F801918380838C
:1012F0001FC0FE01E95AFF4F88EC90E09183808384
:10130000FE01E95AFF4F808191810197F1F7FE01BB
:10131000E95AFF4F91838083DE01A75ABF4FFE0138
:10132000E75AFF4F80819181019711969C938E938C
:10133000FE01E75AFF4F808191810097D1F628C0C6
:101340008E01075A1F4FFE01E55AFF4F60817181E0
:10135000828193810E944900DC01CB01F8019183D5
:101360008083DE01AB5ABF4FFE01E75AFF4F8081F9
:10137000918111969C938E93FE01EB5AFF4F8081D1
:1013800091810197F1F7FE01EB5AFF4F9183808322
:10139000FE01EB55FF4F80818D3309F03FCF0E9456
:1013A0009F1C2EE730E080E060E0A9010E94631CF2
:1013B0002FE830E081E060E0A9010E94631CFE019B
:1013C000ED55FF4F10826BC20E94F516FE01EB55E2
:1013D000FF4F8083FE01EF5AFF4F80E090E0A8E4CA
:1013E000B2E480839183A283B3838E01035B1F4F9A
:1013F000FE01EF5AFF4F608171818281938120E06D
:1014000030E04AEF54E40E941F02DC01CB01F801F6
:1014100080839183A283B383FE01E35BFF4F6081EE
:1014200071818281938120E030E040E85FE30E9497
:101430007903882344F4FE01E55BFF4F81E090E0EF
:101440009183808364C0FE01E35BFF4F6081718103
:101450008281938120E03FEF4FE757E40E94190318
:1014600018160CF043C0FE01EF5AFF4F60817181E6
:101470008281938120E030E040E251E40E941F022B
:10148000DC01CB018E01055B1F4FBC01CD010E9429
:101490004900DC01CB01F801918380831FC0FE016C
:1014A000E75BFF4F88EC90E091838083FE01E75B70
:1014B000FF4F808191810197F1F7FE01E75BFF4FBC
:1014C00091838083DE01A55BBF4FFE01E55BFF4F8B
:1014D00080819181019711969C938E93FE01E55B2B
:1014E000FF4F808191810097D1F6B4C08E01055BDA
:1014F0001F4FFE01E35BFF4F608171818281938109
:101500000E944900DC01CB01F80191838083DE0158
:10151000A95BBF4FFE01E55BFF4F80819181119672
:101520009C938E93FE01E95BFF4F8081918101972F
:10153000F1F7FE01E95BFF4F918380838BC00E942E
:10154000F516FE01EB55FF4F8083FE01ED5BFF4F6B
:1015500080E090E0A8E4B2E480839183A283B38327
:101560008E01015C1F4FFE01ED5BFF4F60817181B9
:101570008281938120E030E04AEF54E40E941F0210
:10158000DC01CB01F80180839183A283B383FE0148
:10159000FF96608171818281938120E030E040E894
:1015A0005FE30E94790388232CF481E090E09EAFF2
:1015B0008DAF46C0FE01FF9660817181828193816B
:1015C00020E03FEF4FE757E40E941903181664F537
:1015D000FE01ED5BFF4F608171818281938120E08C
:1015E00030E040E251E40E941F02DC01CB01BC016B
:1015F000CD010E944900DC01CB019EAF8DAF0FC031
:1016000088EC90E09CAF8BAF8BAD9CAD0197F1F770
:101610009CAF8BAF8DAD9EAD01979EAF8DAF8DAD65
:101620009EAD009769F716C0FE01FF96608171813B
:10163000828193810E944900DC01CB019EAF8DAF76
:101640008DAD9EAD9AAF89AF89AD9AAD0197F1F797
:101650009AAF89AFFE01EB55FF4F80818A3008F0C9
:101660006ECFFE01ED55FF4F8081982F965F20E7EA
:1016700030E081E0692FA9010E94631C80E090E0C6
:10168000ACE8B2E48DAB9EABAFABB8AF6DA97EA9B1
:101690008FA998AD20E030E04AEF54E40E941F0289
:1016A000DC01CB0189AB9AABABABBCAB69A97AA926
:1016B0008BA99CA920E030E040E85FE30E94790319
:1016C00088232CF481E090E098AB8FA73FC069A9F4
:1016D0007AA98BA99CA920E03FEF4FE757E40E942D
:1016E000190318164CF56DA97EA98FA998AD20E0B5
:1016F00030E040E251E40E941F02DC01CB01BC015A
:10170000CD010E944900DC01CB0198AB8FA70FC02F
:1017100088EC90E09EA78DA78DA59EA50197F1F777
:101720009EA78DA78FA598A9019798AB8FA78FA586
:1017300098A9009769F714C069A97AA98BA99CA9EF
:101740000E944900DC01CB0198AB8FA78FA598A917
:101750009CA78BA78BA59CA50197F1F79CA78BA7AE
:10176000FE01E556FF4F80819181A281B3812AE07D
:1017700030E040E050E0BC01CD010E94DA1E9B0148
:10178000AC01FE01EB55FF4F8081882F90E0A0E077
:10179000B0E0FE01E556FF4F820F931FA41FB51F57
:1017A00080839183A283B38380E090E0AAE7B3E4CF
:1017B0008FA398A7A9A7BAA76FA178A589A59AA56D
:1017C00020E030E04AEF54E40E941F02DC01CB012C
:1017D0008BA39CA3ADA3BEA36BA17CA18DA19EA155
:1017E00020E030E040E85FE30E94790388232CF496
:1017F00081E090E09AA389A33FC06BA17CA18DA159
:101800009EA120E03FEF4FE757E40E94190318160E
:101810004CF56FA178A589A59AA520E030E040E2BB
:1018200051E40E941F02DC01CB01BC01CD010E94EA
:101830004900DC01CB019AA389A30FC088EC90E09A
:1018400098A38F8F8F8D98A10197F1F798A38F8F11
:1018500089A19AA101979AA389A389A19AA1009726
:1018600069F714C06BA17CA18DA19EA10E944900C3
:10187000DC01CB019AA389A389A19AA19E8F8D8FA8
:101880008D8D9E8D0197F1F79E8F8D8FDE01AD5569
:10189000BF4FFE01ED55FF4F80818F5F8C93FE019E
:1018A000ED55FF4F8081853008F48ECD0E949F1C3E
:1018B00022E730E080E060E0A9010E94631C78C06C
:1018C0000E94F516FE01EB55FF4F808380E090E00B
:1018D000A8E4B2E4898F9A8FAB8FBC8F698D7A8D23
:1018E0008B8D9C8D20E030E04AEF54E40E941F0273
:1018F000DC01CB018D8B9E8BAF8BB88F6D897E8980
:101900008F89988D20E030E040E85FE30E94790302
:1019100088232CF481E090E09C8B8B8B3FC06D89F9
:101920007E898F89988D20E03FEF4FE757E40E9432
:10193000190318164CF5698D7A8D8B8D9C8D20E0DE
:1019400030E040E251E40E941F02DC01CB01BC0107
:10195000CD010E944900DC01CB019C8B8B8B0FC019
:1019600088EC90E09A8B898B89899A890197F1F7A5
:101970009A8B898B8B899C8901979C8B8B8B8B890C
:101980009C89009769F714C06D897E898F89988D2D
:101990000E944900DC01CB019C8B8B8B8B899C893D
:1019A000988B8F878F8598890197F1F7988B8F8710
:1019B000FE01EB55FF4F80818D3309F081CFFE0191
:1019C000E556FF4FDE01A156BF4F20813181428194
:1019D00053818D919D910D90BC91A02D28173907B1
:1019E0004A075B0709F05AC082E090E00E94191E86
:1019F000FE01ED55FF4F108244C0FE01E556FF4F3A
:101A000080819181A281B3812AE030E040E050E002
:101A1000BC01CD010E941B1FDC01CB01FE01EC5576
:101A2000FF4F80830E94471E80329105D9F7FE0147
:101A3000EC55FF4F8081882F90E00E94191E8E0187
:101A400005561F4FFE01E556FF4F80819181A2810F
:101A5000B3812AE030E040E050E0BC01CD010E94BB
:101A60001B1FDA01C901F80180839183A283B3832C
:101A7000DE01AD55BF4FFE01ED55FF4F80818F5FF9
:101A80008C93FE01ED55FF4F8081853008F4B5CF72
:101A90000E94471E83309105D9F77DC00E949F1C8C
:101AA0002AE930E080E060E0A9010E94631C80E048
:101AB00090E0AAEFB3E48B879C87AD87BE876B85E8
:101AC0007C858D859E8520E030E04AEF54E40E94BD
:101AD0001F02DC01CB018F839887A987BA876F81AA
:101AE000788589859A8520E030E040E85FE30E94B0
:101AF000790388232CF481E090E09E838D833FC09E
:101B00006F81788589859A8520E03FEF4FE757E41C
:101B10000E94190318164CF56B857C858D859E8572
:101B200020E030E040E251E40E941F02DC01CB01E2
:101B3000BC01CD010E944900DC01CB019E838D8355
:101B40000FC088EC90E09C838B838B819C810197F4
:101B5000F1F79C838B838D819E8101979E838D837A
:101B60008D819E81009769F714C06F817885898582
:101B70009A850E944900DC01CB019E838D838D8173
:101B80009E819A83898389819A810197F1F79A834B
:101B900089830E94B305CB55DF4F0FB6F894DEBFA3
:101BA0000FBECDBFCF91DF911F910F9108950F937D
:101BB0001F93DF93CF93CDB7DEB7CE55D0400FB68E
:101BC000F894DEBF0FBECDBFFE01E35AFF4F9183F5
:101BD0008083FE01E75AFF4F108211821282138226
:101BE000FE01E95AFF4F1082FE01EA5AFF4F1082B0
:101BF000FE01EB5AFF4F10820E949F1C27EA30E043
:101C000080E060E0A9010E94631CFE01E85AFF4FDA
:101C1000108268C20E94F516FE01E95AFF4F8083C8
:101C2000FE01EF5AFF4F80E090E0A8E4B2E4808329
:101C30009183A283B3838E01035B1F4FFE01EF5A92
:101C4000FF4F608171818281938120E030E04AEF13
:101C500054E40E941F02DC01CB01F80180839183D0
:101C6000A283B383FE01E35BFF4F608171818281B8
:101C7000938120E030E040E85FE30E94790388230D
:101C800044F4FE01E55BFF4F81E090E091838083A7
:101C900064C0FE01E35BFF4F6081718182819381AB
:101CA00020E03FEF4FE757E40E94190318160CF0AD
:101CB00043C0FE01EF5AFF4F6081718182819381A1
:101CC00020E030E040E251E40E941F02DC01CB0141
:101CD0008E01055B1F4FBC01CD010E944900DC0154
:101CE000CB01F801918380831FC0FE01E75BFF4FAA
:101CF00088EC90E091838083FE01E75BFF4F808159
:101D000091810197F1F7FE01E75BFF4F918380839B
:101D1000DE01A55BBF4FFE01E55BFF4F8081918136
:101D2000019711969C938E93FE01E55BFF4F808196
:101D300091810097D1F6B4C08E01055B1F4FFE0163
:101D4000E35BFF4F60817181828193810E94490032
:101D5000DC01CB01F80191838083DE01A95BBF4FD9
:101D6000FE01E55BFF4F8081918111969C938E93DC
:101D7000FE01E95BFF4F808191810197F1F7FE0140
:101D8000E95BFF4F918380838BC00E94F516FE01B3
:101D9000E95AFF4F8083FE01ED5BFF4F80E090E04A
:101DA000A8E4B2E480839183A283B3838E01015CB3
:101DB0001F4FFE01ED5BFF4F608171818281938136
:101DC00020E030E04AEF54E40E941F02DC01CB0126
:101DD000F80180839183A283B383FE01FF96608123
:101DE00071818281938120E030E040E85FE30E94CE
:101DF000790388232CF481E090E09EAF8DAF46C03C
:101E0000FE01FF96608171818281938120E03FEF26
:101E10004FE757E40E941903181664F5FE01ED5BC5
:101E2000FF4F608171818281938120E030E040E248
:101E300051E40E941F02DC01CB01BC01CD010E94D4
:101E40004900DC01CB019EAF8DAF0FC088EC90E064
:101E50009CAF8BAF8BAD9CAD0197F1F79CAF8BAF77
:101E60008DAD9EAD01979EAF8DAF8DAD9EAD0097B0
:101E700069F716C0FE01FF966081718182819381AE
:101E80000E944900DC01CB019EAF8DAF8DAD9EADB0
:101E90009AAF89AF89AD9AAD0197F1F79AAF89AF43
:101EA000FE01E95AFF4F80818A3008F06ECFFE01B3
:101EB000E85AFF4F20E730E081E06081A9010E94ED
:101EC000631C80E090E0ACE8B2E48DAB9EABAFABBE
:101ED000B8AF6DA97EA98FA998AD20E030E04AEF98
:101EE00054E40E941F02DC01CB0189AB9AABABAB7F
:101EF000BCAB69A97AA98BA99CA920E030E040E895
:101F00005FE30E94790388232CF481E090E098AB92
:101F10008FA73FC069A97AA98BA99CA920E03FEFB0
:101F20004FE757E40E94190318164CF56DA97EA9D6
:101F30008FA998AD20E030E040E251E40E941F02FA
:101F4000DC01CB01BC01CD010E944900DC01CB01C9
:101F500098AB8FA70FC088EC90E09EA78DA78DA5AA
:101F60009EA50197F1F79EA78DA78FA598A9019728
:101F700098AB8FA78FA598A9009769F714C069A996
:101F80007AA98BA99CA90E944900DC01CB0198ABDE
:101F90008FA78FA598A99CA78BA78BA59CA5019718
:101FA000F1F79CA78BA7FE01E75AFF4F8081918133
:101FB000A281B3812AE030E040E050E0BC01CD01D5
:101FC0000E94DA1E9B01AC01FE01E95AFF4F80819D
:101FD000882F90E0A0E0B0E0FE01E75AFF4F820FAB
:101FE000931FA41FB51F80839183A283B38380E0D6
:101FF00090E0AAE7B3E48FA398A7A9A7BAA76FA117
:1020000078A589A59AA520E030E04AEF54E40E9423
:102010001F02DC01CB018BA39CA3ADA3BEA36BA1CC
:102020007CA18DA19EA120E030E040E85FE30E940A
:10203000790388232CF481E090E09AA389A33FC020
:102040006BA17CA18DA19EA120E03FEF4FE757E45B
:102050000E94190318164CF56FA178A589A59AA5B9
:1020600020E030E040E251E40E941F02DC01CB019D
:10207000BC01CD010E944900DC01CB019AA389A3D8
:102080000FC088EC90E098A38F8F8F8D98A1019757
:10209000F1F798A38F8F89A19AA101979AA389A399
:1020A00089A19AA1009769F714C06BA17CA18DA1A9
:1020B0009EA10E944900DC01CB019AA389A389A1BA
:1020C0009AA19E8F8D8F8D8D9E8D0197F1F79E8F9A
:1020D0008D8FDE01A85ABF4FFE01E85AFF4F808165
:1020E0008F5F8C93FE01E85AFF4F8081853008F4A2
:1020F00091CD0E949F1C22E730E080E060E0A901C2
:102100000E94631C78C00E94F516FE01E95AFF4F39
:10211000808380E090E0A8E4B2E4898F9A8FAB8F4F
:10212000BC8F698D7A8D8B8D9C8D20E030E04AEFDD
:1021300054E40E941F02DC01CB018D8B9E8BAF8B80
:10214000B88F6D897E898F89988D20E030E040E8D6
:102150005FE30E94790388232CF481E090E09C8B5C
:102160008B8B3FC06D897E898F89988D20E03FEFF2
:102170004FE757E40E94190318164CF5698D7A8DC4
:102180008B8D9C8D20E030E040E251E40E941F02E4
:10219000DC01CB01BC01CD010E944900DC01CB0177
:1021A0009C8B8B8B0FC088EC90E09A8B898B8989F4
:1021B0009A890197F1F79A8B898B8B899C89019772
:1021C0009C8B8B8B8B899C89009769F714C06D89D8
:1021D0007E898F89988D0E944900DC01CB019C8B00
:1021E0008B8B8B899C89988B8F878F85988901979A
:1021F000F1F7988B8F87FE01E95AFF4F80818D336D
:1022000009F081CF84E090E00E94191EFE01E85A97
:10221000FF4F10824CC0FE01E75AFF4F8081918131
:10222000A281B3812AE030E040E050E0BC01CD0162
:102230000E941B1FDC01CB01FE01EA5AFF4F808385
:10224000FE01EA5AFF4F8081882F90E00E94191EFC
:102250000E94471E009749F4DE01AB5ABF4FFE01B2
:10226000EB5AFF4F80818F5F8C938E01075A1F4F6F
:10227000FE01E75AFF4F80819181A281B3812AE05C
:1022800030E040E050E0BC01CD010E941B1FDA01AC
:10229000C901F80180839183A283B383DE01A85A28
:1022A000BF4FFE01E85AFF4F80818F5F8C93FE0184
:1022B000E85AFF4F8081853008F4ADCFFE01EB5A1C
:1022C000FF4F8081882309F4BEC080913F018F5F5A
:1022D00080933F0180913F01882F90E00E94191E5A
:1022E00080913F01833008F083C00E949F1C27EB40
:1022F00030E080E060E0A9010E94631C80E090E093
:10230000AAEFB3E48B879C87AD87BE876B857C85FE
:102310008D859E8520E030E04AEF54E40E941F0244
:10232000DC01CB018F839887A987BA876F81788575
:1023300089859A8520E030E040E85FE30E947903D8
:1023400088232CF481E090E09E838D833FC06F81D1
:10235000788589859A8520E03FEF4FE757E40E9412
:10236000190318164CF56B857C858D859E8520E0BC
:1023700030E040E251E40E941F02DC01CB01BC01CD
:10238000CD010E944900DC01CB019E838D830FC0EB
:1023900088EC90E09C838B838B819C810197F1F783
:1023A0009C838B838D819E8101979E838D838D81FC
:1023B0009E81009769F714C06F81788589859A8519
:1023C0000E944900DC01CB019E838D838D819E811B
:1023D0009A83898389819A810197F1F79A83898306
:1023E000FE01E35AFF4F808191810E94D70D31C0D9
:1023F0000E949F1CFE01E35AFF4F808191810E9441
:102400000F1D10923D0110923C0110923E010EC032
:1024100026EC30E080E060E0A9010E94631C22ED20
:1024200030E081E060E0A9010E94631C80913C01E2
:1024300090913D018C33910559F710923F0181E055
:102440008093400106C084E090E00E94191E109223
:102450003F01C25ADF4F0FB6F894DEBF0FBECDBFAB
:10246000CF91DF911F910F910895DF93CF9300D00B
:10247000CDB7DEB79A83898386E090E00E94191E6B
:102480000E949F1C89819A810E940F1D10923D011C
:1024900010923C0110923E0107C02FED30E080E029
:1024A00060E0A9010E94631C80913C0190913D0174
:1024B0008F30910591F70E949F1C10923D01109260
:1024C0003C0110923E0107C02EEE30E080E060E05B
:1024D000A9010E94631C80913C0190913D018330D1
:1024E000910591F70E949F1C10923D0110923C01B2
:1024F00010923E0107C02AEF30E080E060E0A901C1
:102500000E94631C80913C0190913D018F309105A8
:1025100091F70F900F90CF91DF910895DF93CF93B4
:10252000CDB7DEB761970FB6F894DEBF0FBECDBF53
:10253000998B888B1F860E949F1C29E031E080E0E8
:1025400060E0A9010E94631C27E131E081E060E0C6
:10255000A9010E94631C75C00E94F5168F8780E058
:1025600090E0A8E4B2E48B879C87AD87BE876B853B
:102570007C858D859E8520E030E04AEF54E40E9402
:102580001F02DC01CB018F839887A987BA876F81EF
:10259000788589859A8520E030E040E85FE30E94F5
:1025A000790388232CF481E090E09E838D833FC0E3
:1025B0006F81788589859A8520E03FEF4FE757E462
:1025C0000E94190318164CF56B857C858D859E85B8
:1025D00020E030E040E251E40E941F02DC01CB0128
:1025E000BC01CD010E944900DC01CB019E838D839B
:1025F0000FC088EC90E09C838B838B819C8101973A
:10260000F1F79C838B838D819E8101979E838D83BF
:102610008D819E81009769F714C06F8178858985C7
:102620009A850E944900DC01CB019E838D838D81B8
:102630009E819A83898389819A810197F1F79A8390
:1026400089838F858B3221F08F858D3209F084CF7D
:10265000888999890E94D70D80914001882F90E048
:102660000E94191E80914001882381F48F85882F54
:1026700090E00E94191E8F858D3219F40E94B305D7
:1026800007C0888999890E94351202C010924001C2
:1026900061960FB6F894DEBF0FBECDBFCF91DF912C
:1026A0000895DF93CF93CDB7DEB767970FB6F89451
:1026B000DEBF0FBECDBFAFE5B0E0EFE5F0E080815B
:1026C00080688C930E94ED17CE0101969F878E87BC
:1026D000E6E3F1E0F98BE88BF6E0FA8BE889F9891B
:1026E0000080888999890196998B888BEE85FF8572
:1026F00000828E859F8501969F878E879A8991504B
:102700009A8BEA89EE2351F783EA95E00E94731DC4
:10271000CE0107969C8B8B8BEFE2F1E0FE8BED8B6D
:10272000F7E0FF8BED89FE8900808D899E890196F7
:102730009E8B8D8BEB89FC8900828B899C8901960D
:102740009C8B8B8B9F8991509F8BEF89EE2351F748
:10275000CE0107960E94851D80E190E00E94191E1F
:102760000E94B305CE0101960E948E12FBCFDF932B
:10277000CF9300D000D00F92CDB7DEB789836A83A4
:102780004B838A81883008F0D5C08981843008F075
:10279000D1C08981282F30E03D832C838C819D819D
:1027A0008130910509F443C02C813D8122303105EF
:1027B0002CF48C819D81009771F0BCC02C813D81EF
:1027C0002230310509F45FC08C819D8183309105F1
:1027D00009F485C0AFC08B818130A1F4AAE3B0E0D9
:1027E000EAE3F0E08081482F8A81282F30E081E001
:1027F00090E0022E02C0880F991F0A94E2F7842B02
:102800008C9398C0AAE3B0E0EAE3F0E08081482F1F
:102810008A81282F30E081E090E0022E02C0880FEC
:10282000991F0A94E2F7809584238C9383C08B814F
:102830008130A1F4A7E3B0E0E7E3F0E08081482F26
:102840008A81282F30E081E090E0022E02C0880FBC
:10285000991F0A94E2F7842B8C936CC0A7E3B0E035
:10286000E7E3F0E08081482F8A81282F30E081E083
:1028700090E0022E02C0880F991F0A94E2F780951B
:1028800084238C9357C08B818130A1F4A4E3B0E002
:10289000E4E3F0E08081482F8A81282F30E081E056
:1028A00090E0022E02C0880F991F0A94E2F7842B51
:1028B0008C9340C0A4E3B0E0E4E3F0E08081482FD3
:1028C0008A81282F30E081E090E0022E02C0880F3C
:1028D000991F0A94E2F7809584238C932BC08B81F7
:1028E0008130A1F4A1E3B0E0E1E3F0E08081482F82
:1028F0008A81282F30E081E090E0022E02C0880F0C
:10290000991F0A94E2F7842B8C9314C0A1E3B0E0E2
:10291000E1E3F0E08081482F8A81282F30E081E0D8
:1029200090E0022E02C0880F991F0A94E2F780956A
:1029300084238C930F900F900F900F900F90CF9156
:10294000DF910895DF93CF9300D000D00F92CDB7E1
:10295000DEB789836A834B838A81883008F0D5C0CB
:102960008981843008F0D1C08981282F30E03D83EF
:102970002C838C819D818130910509F443C02C8189
:102980003D81223031052CF48C819D81009771F0BE
:10299000BCC02C813D812230310509F45FC08C819F
:1029A0009D818330910509F485C0AFC08B81813052
:1029B000A1F4ABE3B0E0EBE3F0E08081482F8A8143
:1029C000282F30E081E090E0022E02C0880F991F8E
:1029D0000A94E2F7842B8C9398C0ABE3B0E0EBE36E
:1029E000F0E08081482F8A81282F30E081E090E05C
:1029F000022E02C0880F991F0A94E2F78095842363
:102A00008C9383C08B818130A1F4A8E3B0E0E8E32C
:102A1000F0E08081482F8A81282F30E081E090E02B
:102A2000022E02C0880F991F0A94E2F7842B8C9320
:102A30006CC0A8E3B0E0E8E3F0E08081482F8A8131
:102A4000282F30E081E090E0022E02C0880F991F0D
:102A50000A94E2F7809584238C9357C08B81813050
:102A6000A1F4A5E3B0E0E5E3F0E08081482F8A819E
:102A7000282F30E081E090E0022E02C0880F991FDD
:102A80000A94E2F7842B8C9340C0A5E3B0E0E5E321
:102A9000F0E08081482F8A81282F30E081E090E0AB
:102AA000022E02C0880F991F0A94E2F780958423B2
:102AB0008C932BC08B818130A1F4A2E3B0E0E2E3E0
:102AC000F0E08081482F8A81282F30E081E090E07B
:102AD000022E02C0880F991F0A94E2F7842B8C9370
:102AE00014C0A2E3B0E0E2E3F0E08081482F8A81E5
:102AF000282F30E081E090E0022E02C0880F991F5D
:102B00000A94E2F7809584238C930F900F900F9096
:102B10000F900F90CF91DF910895DF93CF9300D066
:102B200000D00F92CDB7DEB78A836B8319828B8179
:102B3000883008F084C08A81843008F080C08A819F
:102B4000282F30E03D832C834C815D81413051053D
:102B500079F18C819D818230910534F42C813D8105
:102B60002115310569F06BC04C815D814230510502
:102B7000B9F18C819D818330910509F449C05FC012
:102B8000E9E3F0E08081282F30E08B81882F90E00E
:102B9000A90102C0559547958A95E2F7CA0181704F
:102BA0009070882319F081E0898349C0198247C059
:102BB000E6E3F0E08081282F30E08B81882F90E0E1
:102BC000A90102C0559547958A95E2F7CA0181701F
:102BD0009070882319F081E0898331C019822FC059
:102BE000E3E3F0E08081282F30E08B81882F90E0B4
:102BF000A90102C0559547958A95E2F7CA018170EF
:102C00009070882319F081E0898319C0198217C058
:102C1000E0E3F0E08081282F30E08B81882F90E086
:102C2000A90102C0559547958A95E2F7CA018170BE
:102C30009070882319F081E0898301C0198289810D
:102C40000F900F900F900F900F90CF91DF910895FC
:102C5000DF93CF9300D000D0CDB7DEB789836A83EE
:102C60008981843090F58981282F30E03C832B8343
:102C70008B819C8181309105D1F02B813C81223068
:102C800031052CF48B819C81009761F01EC02B8153
:102C90003C812230310581F08B819C81833091050C
:102CA00081F013C0EAE3F0E08A8180830EC0E7E39D
:102CB000F0E08A81808309C0E4E3F0E08A818083C8
:102CC00004C0E1E3F0E08A8180830F900F900F90C1
:102CD0000F90CF91DF910895DF93CF9300D000D074
:102CE000CDB7DEB789836A838981843090F5898185
:102CF000282F30E03C832B838B819C818130910590
:102D0000D1F02B813C81223031052CF48B819C81C8
:102D1000009761F01EC02B813C812230310581F08B
:102D20008B819C818330910581F013C0EBE3F0E04F
:102D30008A8180830EC0E8E3F0E08A81808309C045
:102D4000E5E3F0E08A81808304C0E2E3F0E08A8179
:102D500080830F900F900F900F90CF91DF91089587
:102D6000DF93CF9300D000D0CDB7DEB78A8319822E
:102D70008A81843090F58A81282F30E03C832B8330
:102D80008B819C8181309105D1F02B813C81223057
:102D900031052CF48B819C81009761F01EC02B8142
:102DA0003C812230310581F08B819C8183309105FB
:102DB00081F013C0E9E3F0E0808189830EC0E6E38F
:102DC000F0E08081898309C0E3E3F0E080818983BA
:102DD00004C0E0E3F0E08081898389810F900F9047
:102DE0000F900F90CF91DF910895DF93CF9300D094
:102DF0000F92CDB7DEB719821B8243C080E060E03E
:102E00000E9428168B81982F9C5F80E0692F41E0FB
:102E10000E94B7138B81882F90E09C012C5F3F4F5D
:102E200081E090E002C0880F991F2A95E2F7809513
:102E3000898380E069810E946C161A821CC080E040
:102E40006A810E948D15882399F48A81882F90E0E9
:102E5000880F991F880F991F982F8B81890F8F5F7B
:102E60000E9446170F900F900F90CF91DF91089519
:102E70008A818F5F8A838A81843008F38B818F5F98
:102E80008B838B81843008F4B9CFB6CFDF93CF9397
:102E900000D000D0CDB7DEB78A8319828A81282F6F
:102EA00030E03C832B838B819C818830910509F431
:102EB00070C02B813C81293031055CF58B819C8170
:102EC0008430910509F459C02B813C8125303105AE
:102ED0009CF48B819C818230910509F448C02B8140
:102EE0003C81233031050CF045C08B819C818130C1
:102EF000910509F439C067C02B813C81263031052A
:102F000009F441C08B819C81873091050CF03EC053
:102F100037C02B813C812C30310509F446C08B81B0
:102F20009C818D3091055CF42B813C812A303105E8
:102F3000B1F18B819C818B309105A4F52DC02B8143
:102F40003C812E303105B9F18B819C818E30910509
:102F50007CF12B813C812F30310579F18B819C8173
:102F60008031910569F12FC087E089832EC088E008
:102F700089832BC089E0898328C085E2898325C0A5
:102F800084E0898322C085E089831FC086E089832D
:102F90001CC08AE2898319C081E0898316C082E05F
:102FA000898313C083E0898310C08DE289830DC0BB
:102FB0008DE089830AC0198208C08DE3898305C02A
:102FC0008BE2898302C08A81898389810F900F9067
:102FD0000F900F90CF91DF910895DF93CF93CDB7EE
:102FE000DEB782E060E041E00E94B71382E061E07A
:102FF00041E00E94B71382E062E041E00E94B71313
:1030000081E06FEF0E94281688E30E9410188CE080
:103010000E94101881E00E941018CF91DF9108954E
:10302000DF93CF93CDB7DEB7E9970FB6F894DEBF45
:103030000FBECDBF89AF82E060E040E00E94A214E5
:1030400082E061E040E00E94A21480E090E0A0E80D
:10305000BFE38DAB9EABAFABB8AF6DA97EA98FA917
:1030600098AD20E030E04AEF54E40E941F02DC01FA
:10307000CB0189AB9AABABABBCAB69A97AA98BA9E5
:103080009CA920E030E040E85FE30E9479038823B8
:103090002CF481E090E098AB8FA73FC069A97AA992
:1030A0008BA99CA920E03FEF4FE757E40E9419034A
:1030B00018164CF56DA97EA98FA998AD20E030E0D7
:1030C00040E251E40E941F02DC01CB01BC01CD01B2
:1030D0000E944900DC01CB0198AB8FA70FC088ECA0
:1030E00090E09EA78DA78DA59EA50197F1F79EA7BD
:1030F0008DA78FA598A9019798AB8FA78FA598A9A1
:10310000009769F714C069A97AA98BA99CA90E94A4
:103110004900DC01CB0198AB8FA78FA598A99CA78C
:103120008BA78BA59CA50197F1F79CA78BA782E0A5
:1031300062E041E00E94A21480E090E0A0E8BFE3DA
:103140008FA398A7A9A7BAA76FA178A589A59AA5C3
:1031500020E030E04AEF54E40E941F02DC01CB0182
:103160008BA39CA3ADA3BEA36BA17CA18DA19EA1AB
:1031700020E030E040E85FE30E94790388232CF4EC
:1031800081E090E09AA389A33FC06BA17CA18DA1AF
:103190009EA120E03FEF4FE757E40E941903181665
:1031A0004CF56FA178A589A59AA520E030E040E212
:1031B00051E40E941F02DC01CB01BC01CD010E9441
:1031C0004900DC01CB019AA389A30FC088EC90E0F1
:1031D00098A38F8F8F8D98A10197F1F798A38F8F68
:1031E00089A19AA101979AA389A389A19AA100977D
:1031F00069F714C06BA17CA18DA19EA10E9449001A
:10320000DC01CB019AA389A389A19AA19E8F8D8FFE
:103210008D8D9E8D0197F1F79E8F8D8F81E069AD29
:103220000E946C1680E090E0A0E8BFE3898F9A8F3F
:10323000AB8FBC8F698D7A8D8B8D9C8D20E030E0BB
:103240004AEF54E40E941F02DC01CB018D8B9E8B60
:10325000AF8BB88F6D897E898F89988D20E030E0A3
:1032600040E85FE30E94790388232CF481E090E03A
:103270009C8B8B8B3FC06D897E898F89988D20E0D8
:103280003FEF4FE757E40E94190318164CF5698D7C
:103290007A8D8B8D9C8D20E030E040E251E40E94DD
:1032A0001F02DC01CB01BC01CD010E944900DC0101
:1032B000CB019C8B8B8B0FC088EC90E09A8B898B19
:1032C00089899A890197F1F79A8B898B8B899C89D7
:1032D00001979C8B8B8B8B899C89009769F714C015
:1032E0006D897E898F89988D0E944900DC01CB0110
:1032F0009C8B8B8B8B899C89988B8F878F859889EA
:103300000197F1F7988B8F8782E062E040E00E949E
:10331000A21480E090E0A0E8BFE38B879C87AD8794
:10332000BE876B857C858D859E8520E030E04AEFE9
:1033300054E40E941F02DC01CB018F839887A98788
:10334000BA876F81788589859A8520E030E040E8EA
:103350005FE30E94790388232CF481E090E09E8350
:103360008D833FC06F81788589859A8520E03FEF06
:103370004FE757E40E94190318164CF56B857C85BE
:103380008D859E8520E030E040E251E40E941F02DE
:10339000DC01CB01BC01CD010E944900DC01CB0165
:1033A0009E838D830FC088EC90E09C838B838B8100
:1033B0009C810197F1F79C838B838D819E8101977E
:1033C0009E838D838D819E81009769F714C06F81E4
:1033D000788589859A850E944900DC01CB019E830E
:1033E0008D838D819E819A83898389819A810197BA
:1033F000F1F79A838983E9960FB6F894DEBF0FBE82
:10340000CDBFCF91DF910895DF93CF93CDB7DEB7D6
:10341000E9970FB6F894DEBF0FBECDBF89AF82E04B
:1034200060E041E00E94A21482E061E040E00E947E
:10343000A21480E090E0A0E8BFE38DAB9EABAFAB01
:10344000B8AF6DA97EA98FA998AD20E030E04AEF12
:1034500054E40E941F02DC01CB0189AB9AABABABF9
:10346000BCAB69A97AA98BA99CA920E030E040E80F
:103470005FE30E94790388232CF481E090E098AB0D
:103480008FA73FC069A97AA98BA99CA920E03FEF2B
:103490004FE757E40E94190318164CF56DA97EA951
:1034A0008FA998AD20E030E040E251E40E941F0275
:1034B000DC01CB01BC01CD010E944900DC01CB0144
:1034C00098AB8FA70FC088EC90E09EA78DA78DA525
:1034D0009EA50197F1F79EA78DA78FA598A90197A3
:1034E00098AB8FA78FA598A9009769F714C069A911
:1034F0007AA98BA99CA90E944900DC01CB0198AB59
:103500008FA78FA598A99CA78BA78BA59CA5019792
:10351000F1F79CA78BA782E062E041E00E94A21431
:1035200080E090E0A0E8BFE38FA398A7A9A7BAA77F
:103530006FA178A589A59AA520E030E04AEF54E470
:103540000E941F02DC01CB018BA39CA3ADA3BEA3F1
:103550006BA17CA18DA19EA120E030E040E85FE35B
:103560000E94790388232CF481E090E09AA389A338
:103570003FC06BA17CA18DA19EA120E03FEF4FE752
:1035800057E40E94190318164CF56FA178A589A578
:103590009AA520E030E040E251E40E941F02DC01E5
:1035A000CB01BC01CD010E944900DC01CB019AA3F3
:1035B00089A30FC088EC90E098A38F8F8F8D98A17E
:1035C0000197F1F798A38F8F89A19AA101979AA3E8
:1035D00089A389A19AA1009769F714C06BA17CA166
:1035E0008DA19EA10E944900DC01CB019AA389A371
:1035F00089A19AA19E8F8D8F8D8D9E8D0197F1F758
:103600009E8F8D8F81E069AD0E946C1680E090E006
:10361000A0E8BFE3898F9A8FAB8FBC8F698D7A8DBD
:103620008B8D9C8D20E030E04AEF54E40E941F0215
:10363000DC01CB018D8B9E8BAF8BB88F6D897E8922
:103640008F89988D20E030E040E85FE30E947903A5
:1036500088232CF481E090E09C8B8B8B3FC06D899C
:103660007E898F89988D20E03FEF4FE757E40E94D5
:10367000190318164CF5698D7A8D8B8D9C8D20E081
:1036800030E040E251E40E941F02DC01CB01BC01AA
:10369000CD010E944900DC01CB019C8B8B8B0FC0BC
:1036A00088EC90E09A8B898B89899A890197F1F748
:1036B0009A8B898B8B899C8901979C8B8B8B8B89AF
:1036C0009C89009769F714C06D897E898F89988DD0
:1036D0000E944900DC01CB019C8B8B8B8B899C89E0
:1036E000988B8F878F8598890197F1F7988B8F87B3
:1036F00082E062E040E00E94A21480E090E0A0E856
:10370000BFE38B879C87AD87BE876B857C858D8566
:103710009E8520E030E04AEF54E40E941F02DC0165
:10372000CB018F839887A987BA876F817885898530
:103730009A8520E030E040E85FE30E947903882327
:103740002CF481E090E09E838D833FC06F8178856B
:1037500089859A8520E03FEF4FE757E40E941903DF
:1037600018164CF56B857C858D859E8520E030E0B4
:1037700040E251E40E941F02DC01CB01BC01CD01FB
:103780000E944900DC01CB019E838D830FC088EC31
:1037900090E09C838B838B819C810197F1F79C83C4
:1037A0008B838D819E8101979E838D838D819E81E8
:1037B000009769F714C06F81788589859A850E9482
:1037C0004900DC01CB019E838D838D819E819A838C
:1037D000898389819A810197F1F79A838983E99690
:1037E0000FB6F894DEBF0FBECDBFCF91DF91089525
:1037F000DF93CF9300D00F92CDB7DEB79B838A8340
:1038000019820EC08981282F30E08A819B81FC01BA
:10381000E20FF31F80810E94041A89818F5F8983E0
:103820008981282F30E08A819B81FC01E20FF31F00
:103830008081882339F70F900F900F90CF91DF91FF
:103840000895DF93CF9300D000D00F92CDB7DEB7AD
:103850008A836B838A81282F30E03D832C838C817F
:103860009D8181309105C1F02C813D81223031054F
:103870002CF48C819D81009761F019C02C813D81D1
:103880002230310569F08C819D818330910561F092
:103890000EC08B8189830BC08B81805C898307C0BC
:1038A0008B81805F898303C08B81805B8983898161
:1038B00080680E9410180F900F900F900F900F903B
:1038C000CF91DF910895DF93CF9300D000D0CDB793
:1038D000DEB789836A835C834B8389816A810E9416
:1038E000211C8B819C810E94F81B0F900F900F90E0
:1038F0000F90CF91DF910895DF93CF93CDB7DEB7CF
:1039000062970FB6F894DEBF0FBECDBF9A8B898B3E
:1039100089899A899E012F5F3F4FB9014AE050E0A3
:103920000E946D1FCE0101960E94F81B62960FB691
:10393000F894DEBF0FBECDBFCF91DF910895DF9326
:10394000CF93CDB7DEB781E00E941018CF91DF9101
:1039500008951F920F920FB60F9211242F933F9349
:103960004F935F936F937F938F939F93AF93BF9387
:10397000EF93FF93DF93CF93CDB7DEB780914101F3
:1039800090914201009729F0E0914101F0914201AC
:103990000995CF91DF91FF91EF91BF91AF919F91E9
:1039A0008F917F916F915F914F913F912F910F90E8
:1039B0000FBE0F901F9018951F920F920FB60F9287
:1039C00011242F933F934F935F936F937F938F9324
:1039D0009F93AF93BF93EF93FF93DF93CF93CDB7B5
:1039E000DEB78091410190914201009729F0E0916A
:1039F0004101F09142010995CF91DF91FF91EF9143
:103A0000BF91AF919F918F917F916F915F914F91F6
:103A10003F912F910F900FBE0F901F901895DF933D
:103A2000CF9300D0CDB7DEB79A838983ACE4B0E002
:103A3000E981FA818281938111969C938E93AAE405
:103A4000B0E0E981FA818481958111969C938E93EF
:103A5000EFE4F0E08CE08083AEE4B0E0E981FA814D
:103A600080818C93E981FA818181882391F4AFE48C
:103A7000B0E0EFE4F0E09081E981FA818181892B67
:103A80008C93A9E5B0E0E9E5F0E0808184608C9357
:103A900013C0E981FA818181843071F4AEE4B0E031
:103AA000EEE4F0E0808188608C93A9E5B0E0E9E580
:103AB000F0E0808180618C930F900F90CF91DF9127
:103AC0000895DF93CF93CDB7DEB7EEE4F0E0108238
:103AD000ECE4F0E011821082EAE4F0E0118210825E
:103AE000CF91DF910895DF93CF9300D0CDB7DEB7AC
:103AF0009A83898389819A819093420180934101BD
:103B00000F900F90CF91DF910895DF93CF9300D066
:103B100000D0CDB7DEB79C838B831A821982EBE28B
:103B2000F0E082E08083EAE2F0E088E18083AAE2CC
:103B3000B0E0EAE2F0E08081982F9B7FEB81FC818E
:103B400080818470892B8C93E0E4F0E080E88083AE
:103B5000A0E4B0E0E0E4F0E08081282F2F7CEB814E
:103B6000FC818181882F90E083709070829592957E
:103B7000907F9827807F9827822B8C93A0E4B0E0D9
:103B8000E0E4F0E08081282F277FEB81FC818281B7
:103B9000882F90E081709070880F991F880F991F6F
:103BA000880F991F822B8C93A0E4B0E0E0E4F0E052
:103BB0008081282F297FEB81FC818081882F90E0F4
:103BC00083709070880F991F822B8C93EB81FC81FE
:103BD00083819481A581B681880F991FAA1FBB1F7D
:103BE000880F991FAA1FBB1F880F991FAA1FBB1FF1
:103BF0009C01AD0180E092E1AAE7B0E0BC01CD01FB
:103C00000E94F91EDA01C90101979A838983E0E4D1
:103C1000F0E089819A81892F99278083E9E2F0E099
:103C2000898180830F900F900F900F90CF91DF913B
:103C30000895DF93CF9300D0CDB7DEB79A83898301
:103C4000EBE2F0E08081882F90E080729070009726
:103C5000B9F389819A8180709170009741F0AAE24E
:103C6000B0E0EAE2F0E0808181608C9307C0AAE2D4
:103C7000B0E0EAE2F0E080818E7F8C93ECE2F0E04D
:103C8000898180830F900F90CF91DF910895DF930A
:103C9000CF9300D0CDB7DEB7EBE2F0E08081882390
:103CA000DCF7EAE2F0E08081882F90E0827090708B
:103CB00095958795382F2227ECE2F0E08081882FB8
:103CC00090E0822B932B9A83898389819A810F902C
:103CD0000F90CF91DF910895DF93CF9300D00F9293
:103CE000CDB7DEB79B838A83198210C08981282FC4
:103CF00030E08A819B81FC01E20FF31F8081882FD5
:103D000090E00E94191E89818F5F89838981282F05
:103D100030E08A819B81FC01E20FF31F80818823C0
:103D200029F70F900F900F90CF91DF9108950F9387
:103D30001F93DF93CF9300D00F92CDB7DEB79B8355
:103D40008A8319828981282F30E08A819B818C01A6
:103D5000020F131F0E94471EF80180830FC0898144
:103D60008F5F89838981282F30E08A819B818C0134
:103D7000020F131F0E94471EF80180838981282F9C
:103D800030E08A819B81FC01E20FF31F8081833246
:103D900031F78981282F30E08A819B81FC01E20F75
:103DA000F31F10820F900F900F90CF91DF911F9112
:103DB0000F910895629FD001739FF001829FE00DE3
:103DC000F11D649FE00DF11D929FF00D839FF00D9A
:103DD000749FF00D659FF00D9927729FB00DE11D46
:103DE000F91F639FB00DE11DF91FBD01CF01112423
:103DF0000895A1E21A2EAA1BBB1BFD010DC0AA1F2C
:103E0000BB1FEE1FFF1FA217B307E407F50720F043
:103E1000A21BB30BE40BF50B661F771F881F991FBE
:103E20001A9469F760957095809590959B01AC0107
:103E3000BD01CF01089597FB092E05260ED057FD31
:103E400004D0D7DF0AD0001C38F450954095309547
:103E500021953F4F4F4F5F4F0895F6F7909580950E
:103E6000709561957F4F8F4F9F4F08952F923F928E
:103E70004F925F926F927F928F929F92AF92BF927A
:103E8000CF92DF92EF92FF920F931F93CF93DF9326
:103E9000CDB7DEB7CA1BDB0B0FB6F894DEBF0FBE83
:103EA000CDBF09942A88398848885F846E847D84D0
:103EB0008C849B84AA84B984C884DF80EE80FD80D2
:103EC0000C811B81AA81B981CE0FD11D0FB6F89448
:103ED000DEBF0FBECDBFED010895FB019F01E89449
:103EE0004230C4F04532B4F44A3029F497FB1EF452
:103EF000909581959F4F642F77270E949E1F805D2C
:103F00008A330CF0895D8193CB010097A1F716F4F9
:103F10005DE251931082C9010C948E1FDC01FC01FB
:103F2000672F71917723E1F7329704C07C916D93ED
:103F300070836291AE17BF07C8F30895AA1BBB1B1D
:103F400051E107C0AA1FBB1FA617B70710F0A61B99
:103F5000B70B881F991F5A95A9F780959095BC01BA
:083F6000CD010895F894FFCF94
:103F6800506C7A20456E74657220506173733A0004
:103F78002A00506C7A205072657373203D00506C93
:103F88007A2052652D656E746572205468650053F9
:103F9800616D6520506173733A004E4F54204D4156
:103FA800544348494E4700506C7A20456E746572F8
:103FB80020706173733A00494E434F52524543543F
:103FC800205041535300576169742036302053659F
:103FD8006300656C37613220376172616D79004F1B
:103FE80070656E696E6720446F6F722E2E00446F85
:103FF8006F72204F70656E656400436C6F73696EF5
:104008006720446F6F722E2E002B203A204F706568
:104018006E20446F6F72002D203A204368616E67EE
:104028006520506173730000000000000000000369
:0C40380000008025000005040000701747
:00000001FF
